:020000040800F2
:1000000000040020C1010008D14E0008D14E0008B4
:10001000C1400008D14E0008D14E0008D14E000862
:10002000D14E0008D14E0008D14E0008E16E000804
:10003000D14E0008D14E0008D14E000861D400080E
:10004000D14E0008B1A6000841A8000891A80008F8
:10005000D14E0008D14E0008F1A3000841A40008C9
:1000600091A40008E1A4000831A50008C196000889
:100070001197000861970008B197000801980008DF
:1000800051980008A198000831A1000831AA000881
:10009000A1AA000851AB000801AC000881A5000826
:1000A000D14E0008D14E000871CD0008D14E000895
:1000B00021D0000861D00008A1D0000801B80008D4
:1000C00041B90008D14E0008D14E0008D14E0008B9
:1000D000D14E0008D14E0008D14E000821D50008AD
:1000E00011A6000801A7000851A70008B1CD00081B
:1000F000D14E0008D14E0008D14E0008F1980008FA
:10010000D14E000891AD0008E1D00008D14E0008A2
:10011000D14E0008D14E000831CD0008D14E000864
:100120004199000891990008E1990008319A000866
:10013000819A0008D14E0008A1A70008D14E0008FE
:10014000D14E0008D14E0008D14E0008C1C70008AA
:10015000D19A0008219B0008719B0008D14E00082D
:10016000D14E0008D14E0008D14E0008D14E0008F3
:10017000F1A70008D14E0008D1350008D14E000883
:10018000D14E0008D14E0008D14E0008D14E0008D3
:10019000D14E0008D14E0008D14E0008D14E0008C3
:1001A000D14E0008D14E0008D14E0008D14E0008B3
:1001B000D14E0008D14E0008D14E0008D14E0008A3
:1001C00072B62E4880F3098840F20000CCF200009D
:1001D0004EF63471CEF20001086040F20000C0F229
:1001E000F0004EF68851CEF2000108604FF000009A
:1001F000E1EE100A4EF63C71CEF2000108600620D6
:1002000080F31488BFF36F8F0DF0D2FA4FF05530A2
:100210001B491C4A91423CBF41F8040BFAE71A49BA
:10022000164A91423CBF41F8040BFAE71749184AB5
:10023000184B9A423EBF51F8040B42F8040BF8E702
:1002400000201549154A91423CBF41F8040BFAE7DA
:1002500004F026FE124C134DAC4203DA54F8041B92
:100260008847F9E701F05CFF0F4C104DAC4203DA10
:1002700054F8041B8847F9E704F022BE0008002068
:10028000000000200004002000040020E8630108B2
:10029000000800209415002098150020580A01201D
:1002A000C0010008C0010008C0010008C00100082A
:1002B0002DE9F04F2DED108AC1F80CD0D0F80CD0FC
:1002C000BDEC108ABDE8F08F04F042FF05F048FF56
:1002D000002383F311882846A047002005F010FD75
:1002E00005F026FF04F014FF05F032FB04F030FFA8
:1002F00005F036FF00DFFEE7000000000000000010
:100300002DE9F843544B80461A68544882422DED3B
:10031000028B1BD052490B68DA0405D40A6842F4F8
:1003200080530B60012000E000204E4A4E491160CE
:1003300013684A4A934208D147490B6030B1484894
:10034000036823F48052026000E0FEE798ED018A22
:10035000B5EE408A0021F1EE10FAC8F81C10C8F87A
:100360001810C8F81410C8F81010C8F82810C8F8E9
:100370002410C8F8201029D0DFED3C7A28EE270A97
:1003800010EE100A01F038F8044618EE100A0D4677
:1003900001F032F80646B8F800000F4601F01AF8EE
:1003A0002BA3D3E9002301F0ADF902460B463046FA
:1003B000394600F0C3FE02460B462046294601F0AE
:1003C000A1F901F055FBA8F82C0001E0A8F82C10C9
:1003D00098ED028AB5EE408AF1EE10FA26D0B8F810
:1003E00000904FEA092000F0F5FF044618EE100ACD
:1003F0000D4601F001F816A3D3E9002301F058F8E7
:10040000064648460F4600F0E5FF02460B463046DA
:10041000394600F093FE02460B462046294601F07D
:1004200071F901F025FBA8F82E0002E00020A8F8E1
:100430002E00B8F800204FF47A73B2FBF3F1A8F85D
:100440003010BDEC028BBDE8F88300BFAFF3008035
:100450001F85EB51B81E194098150020CDB5E8B5A1
:100460003038024000300240C2A507F4000080434B
:100470002DE9F04F9BB083461992A94A1891A948DB
:100480001168814200D0FEE79E6AB3F80CC09F69F4
:100490009A8DD98D039603261C6A5D6A059706928C
:1004A00006FB0CF74FEA8C0206264FEA4C000B9134
:1004B0000E97052106FB0CF70F9207220294049574
:1004C0000D90119701FB0CF04FEACC0602FB0CF1EA
:1004D00000271D695C69D3F81CA010901291179633
:1004E0000197188EDDF80490814580F20A818E48CC
:1004F0009BF800601BF80C7010F80690C25DA144D8
:100500008419511994F8008194F8002201EB4808ED
:10051000CDF81C80DDF834801BF80860855DC719B4
:10052000A9180E9A97F800411BF8022097F800725C
:1005300001EB4405815C0895CC1981190F9E91F857
:10054000008191F8007204EB48081BF80640CDF8D2
:1005500024808218055D92F8006192F80022E91962
:1005600001EB460505EB0807DDF8408015971BF801
:1005700008700A950419C15D94F8005194F800427E
:10058000DDF81C808E1806EB4501119D089A1BF8BA
:1005900005508E18C719425D1696161997F8002156
:1005A00006EB42029044CDF85080129C97F80072FE
:1005B0001BF804604519845DE41995F8007195F8FD
:1005C0000052801904EB47044FF01C0804EB0907A4
:1005D00090F80061139708FB09AADDF81C800C94C1
:1005E0000AEB0209152705EB460490F8005207FBB9
:1005F0000890099FDDF820900A2606FB070A0F27BE
:1006000007FB09A04FF00308DDF8289008FB010064
:100610004FF0060A0AFB0900009015984FF03009C8
:1006200009FB00FADDF858902E2000FB09A0824655
:100630000598824413984FF0240909FB00AA1498E6
:100640004FF02A0909FB00AA0898DDF8249008FB5E
:1006500000F8062000FB0988DDF81C9008EB090073
:1006600007FB01010A9F0C98DDF8009006FB0718B4
:100670001C2606FB008115270B9807FB021205922A
:10068000A9F5003868B1029E049FCDF8108006EBF2
:100690000801CE1B46434FF4807296FBF2F00290A5
:1006A0008046069961B1039E08FB01F8C1F5807789
:1006B00006FB07894FF4807299FBF2F003908046A5
:1006C000199901FB08F7002F02DD0837381103E004
:1006D000083F102697FBF6F047F6BC72019E1349BF
:1006E000189FDDF85C809042A8BF1046DA897243FB
:1006F0008842A8BF0146013627F81210C34401966C
:10070000EFE61D615C61029D059C1D629C61039D7D
:10071000049CC3F81CA05C629D621BB0BDE8F08F16
:1007200098150020CDB5E8B5000800204480FFFFF3
:100730002DE9F04FA1B0C74C1F92C74A1E91116816
:10074000A14200D0FEE79F6A9A69998DDC8D0497DB
:100750009F89069207910F940322052106241D6AA2
:100760005E6A03957A4379437C43129214911594FF
:10077000072209210A24794305964FEA47084FEAE0
:1007800087097A434FEAC70A7C431E695D69D3F83B
:100790001CB01891CDF84480CDF84C901692CDF84D
:1007A0005CA01D94002102911A8E0299914280F260
:1007B0005981AA4A047812F80490A944C55D111918
:1007C00012F8058091F8004191F800A2464406EB2A
:1007D0004406119C0896045D5519165D95F800C1F4
:1007E00095F8005206EB0A0808EB4C0ADDF8488041
:1007F000CDF824A010F80810DDF84C80565C1419D0
:1008000006EB050A10F8085094F800C1565D94F8FC
:10081000004251180AEB4C0C361991F800A1149CB7
:1008200091F80012CDF828C006EB4A08065DCDF815
:100830002C80945DDDF85480551904EB010A95F87D
:10084000004195F800520AEB44010C9110F8081091
:100850009619545C641996F8005104EB45040D9404
:10086000169D96F80062DDF824A0DDF85C80A444B3
:10087000445DCDF86CC0155D5118AD1991F800615B
:1008800091F8001205EB460505EB0A060E9510F8E7
:1008900008501C961419565DDDF860A0711894F884
:1008A000006194F8004201EB460C08990CEB01063C
:1008B0001A9610F80A605519915D9219091995F860
:1008C000004192F8006195F8005201EB44012D249B
:1008D00001EB090804FB09BB10910899CDF864806D
:1008E0000BEB0C09DDF8288005EB460592F8006259
:1008F000242202FB019A152404FB08A9DDF824A098
:100900000C994FF01C0B0BFB0A994FF00A08DDF80D
:100910002CA008FB01994FF00F0B0E990BFB0A99C5
:100920004FF00308DDF834A008FB01994FF0060BE7
:100930000BFB0A99CDF80490DDF82CA00C994FF030
:100940004B0B51440BFB01F91B994FF0490A0AFB71
:10095000019B0699DDF868900BEB010A4FF03F0B05
:100960001C990BFB09AA4FF0450BDDF864900BFBBB
:1009700001AA4FF0370B0BFB09ABDDF824A00A9955
:1009800008FB0AF84FF00609DDF820A009FB0188F2
:100990000C99D0444FF00F09DDF82CA009FB018819
:1009A0000A21DDF8389001FB0A884FF01C0A0D99E6
:1009B0000AFB098804FB018A109C0F994FF02D094E
:1009C00009FB04A8DDF804A002FB0C820692AAF53C
:1009D0007A3971B1039C0599CDF8149004EB0902A2
:1009E000541A0F9A4FF48071544394FBF1F403941A
:1009F000A146079961B1049CC1F5807209FB01FC15
:100A000004FB02C94FF4807199FBF1F20492914604
:100A10001F9C04FB09F1002902DD10314C1103E099
:100A20001039202291FBF2F447F6BC718C42A8BF2A
:100A30000C46DA890299DDF874804A4308498C42F1
:100A4000A8BF21461E9C24F81210029A4044511C53
:100A5000A9E600BFCDB5E8B5981500200008002034
:100A60004480FFFF05981E615D61039E069D049C06
:100A700058629D61C3F81CB01E629C62104621B092
:100A8000BDE8F08F2DE9F04F95B0994C1392994A3B
:100A900012911168A14200D0FEE75E6A1D6A9F6A4A
:100AA0009A69998DB3F82E800C964FF00009D3F80F
:100AB00010C05E69D3F81CB00195029709920A91A3
:100AC000CDF83480CDF80C908B4904780D190C5D6D
:100AD00095F8007295F8008106EB070A067ACDF8C2
:100AE0002CA08F198E5D97F8002202EB4805AC44CC
:100AF000057C97F80081CDF810C04A194D5D92F839
:100B0000009292F8002109EB040A0AEB480C90F8D5
:100B100018A090F82090CDF814C001EB0A0494F8C6
:100B2000007294F80041BF1907EB420801EB09027B
:100B3000CDF8188092F8006292F80021771907EB3F
:100B4000440606EB080C90F8288011F80A70079606
:100B500001EB0805CDF840C095F8004295F800512A
:100B6000E619059F06EB4204E619119690F83060ED
:100B700008948C1911F8097094F80022D219049F76
:100B800002EB4502BD180F9590F8385011F8089007
:100B900094F80041DDF82C808E5D4F1997F800A283
:100BA00097F800710AEB090C0CEB4404DDF818A06F
:100BB00011F805C000941C2505FB082944440A21AE
:100BC000DDF8148001FB0A9906EB4706DDF820A04A
:100BD0000F2707FB0899032101FB0A99DDF81CA0E8
:100BE0004FF0060808FB0A99DDF810A0152101FB5B
:100BF0000A99CB44DDF84490CDF82CB04FF02E0A82
:100C00000AFB09FADDF840904FF0300B0BFB09AA04
:100C10004FF0240B0BFB04A90F9C4FF02A0A0AFB90
:100C2000049B099CDDF81890DDF810A0A344059CF6
:100C300008FB09A8DDF820A04FF0030909FB048890
:100C4000079C07FB0A890A2707FB0498DDF8009038
:100C5000DDF82CA00C9F05FB098501FB02520199D0
:100C60000992AAF500328C180D99DDF82880E51B51
:100C70004D434FF4807195FBF1F40194019F44467C
:100C80007C43029FC8EB010507FB054595FBF1F18D
:100C90000291139C6143002902DD0831091103E030
:100CA0000839102791FBF7F147F6BC75134C129FDA
:100CB0000C92A942A8BF2946039DA142B8BF214674
:100CC00079530C354030C02D03957FF4FDAE099863
:100CD000019C029D9861C3F810C05E61C3F81CB00E
:100CE0001C625A629D62102015B0BDE8F08F00BFF3
:100CF000CDB5E8B598150020000800204480FFFF1E
:100D00002DE9F04FA1B084461F92BE4A1E91BE4805
:100D10001168814200D0FEE79E6A9F6905969E8910
:100D2000D98D01967000079703277E431190019893
:100D30009A8D0F9112960521019E08924843B200A8
:100D40001490019E01980199139206277E43072271
:100D5000C700514315961797019E019F1C6A5D6A53
:100D6000169109220A2156434F434FF0000804947C
:100D700006955C691D69D3F81CB018961D97CDF8CF
:100D80000C80188EDDF80C90814580F25A819F49C5
:100D90009CF80000DDF804900F181CF8096097F823
:100DA00000A297F80021085CA2448C198E5D94F88B
:100DB000008294F80041454405EB4207119D0997D4
:100DC0001CF805504A194D5D92F8007292F80081A6
:100DD0003F18129807EB44091CF80040CDF8289002
:100DE00008190C5D90F8007290F80001BF1907EB2C
:100DF0004809DDF84C80CDF82C901CF8089001EBE8
:100E00000902CDF8089092F8006292F80021771953
:100E1000149E1CF80690159E07EB400801EB090094
:100E2000CDF8308090F8005290F800012F1907EBB0
:100E300042081CF80670029DCDF83480CA194E5D38
:100E400092F80042A41904EB40050295DDF82C80CD
:100E5000169E92F80021CF5DA844CDF86C801CF856
:100E6000068011F80950DDF8609001EB080011F8D8
:100E7000088090F8004290F8000166190A9D06EB80
:100E80004204179A0E9466191C961CF802608C197D
:100E90008E5D94F8002294F80041D519099F05EB66
:100EA0004002D5191A951CF809504F194D5D97F855
:100EB000000297F80071404400EB44002D2100EB44
:100EC0000A0401FB0ABB1090099819940BEB020A63
:100ED00006EB470424210B9F01FB00A94FF01508E6
:100EE000DDF828A00D9808FB07964FF01C0B0BFBB4
:100EF0000A69DDF830800A2606FB009A0F27DDF824
:100F0000389007FB08AB4FF0030808FB09BADDF87F
:100F100008B0062000FB0BA9CDF80090DDF834A046
:100F2000DDF830B04FF04B090AEB0B0009FB00FA7B
:100F30001B984FF0490B0BFB00A9079809EB000A1F
:100F4000DDF868901C984FF03F0B0BFB09AA4FF09F
:100F5000450BDDF864900BFB00AA4FF0370B0BFB41
:100F600009ABDDF828A00B9808FB0AF84FF006093A
:100F7000DDF824A009FB00880D9808EB0A0907FB9F
:100F800000980C9FDDF83890029806FB07864FF01A
:100F90001C0A0AFB0968152707FB008610980F9F9B
:100FA0004FF02D0909FB006A01FB02A2DDF800A049
:100FB0000792AAF57A386FB10499069ECDF8188089
:100FC00001EB0800811B79434FF4807291FBF2F72B
:100FD0000497B846089860B1059908FB00F8C0F579
:100FE000807601FB06894FF4807299FBF2F7059732
:100FF000B8461F9800FB08F6002E09DD1036771161
:101000000AE000BF98150020CDB5E8B50008002023
:10101000103E202196FBF1F7039ED8891049DDF898
:10102000748047F6BC729742A8BF17468F42A8BF8C
:10103000394670431E9F721C27F81010C444039257
:101040009FE65C61079C049A9C61059E069C1D615D
:10105000C3F81CB01A625C629E6221B0BDE8F08FDA
:101060004480FFFFAFF3008000000000000000009C
:101070004B1C012B98BF70472DE9F003911C9B0876
:10108000B1F80480B1F802900A8831F802CC8044AB
:10109000814402448444D9F80070D8F8006015688F
:1010A000DCF80040C9F80060C8F80070CCF80050C7
:1010B0001460D9F80470D8F804605568DCF804406E
:1010C000C9F80460C8F80470CCF8045054600831C2
:1010D000013BD5D1BDE8F00370474B1C012B98BFF5
:1010E00070472DE9F003911C9B08B1F80480B1F81A
:1010F00002900A8831F802CC00EB580800EB59093D
:1011000000EB520200EB5C0CD9F80070D8F80060DC
:101110001568DCF80040C9F80060C8F80070CCF829
:10112000005014600831013BDFD1BDE8F003704787
:1011300081F0004102E000BF83F0004330B54FEA88
:1011400041044FEA430594EA050F08BF90EA020FF5
:101150001FBF54EA000C55EA020C7FEA645C7FEA88
:10116000655C00F0E2804FEA5454D4EB5555B8BFAB
:101170006D420CDD2C4480EA020281EA030382EA1C
:10118000000083EA010180EA020281EA0303362DAE
:1011900088BF30BD11F0004F4FEA01314FF4801C81
:1011A0004CEA113102D0404261EB410113F0004F93
:1011B0004FEA03334CEA133302D0524263EB43034A
:1011C00094EA050F00F0A780A4F10104D5F1200EE8
:1011D0000DDB02FA0EFC22FA05F2801841F1000143
:1011E00003FA0EF2801843FA05F359410EE0A5F117
:1011F00020050EF1200E012A03FA0EFC28BF4CF048
:10120000020C43FA05F3C01851EBE37101F00045FD
:1012100007D54FF0000EDCF1000C7EEB00006EEB0A
:101220000101B1F5801F1BD3B1F5001F0CD3490894
:101230005FEA30004FEA3C0C04F101044FEA4452EB
:1012400012F5800F80F09A80BCF1004F08BF5FEA72
:10125000500C50F1000041EB045141EA050130BD52
:101260005FEA4C0C404141EB010111F4801FA4F1F5
:101270000104E9D191F0000F04BF01460020B1FA4A
:1012800081F308BF2033A3F10B03B3F120020CDA82
:101290000C3208DD02F1140CC2F10C0201FA0CF060
:1012A00021FA02F10CE002F11402D8BFC2F1200CC5
:1012B00001FA02F120FA0CFCDCBF41EA0C0190407B
:1012C000E41AA2BF01EB0451294330BD6FEA0404C4
:1012D0001F3C1CDA0C340EDC04F11404C4F12002AF
:1012E00020FA04F001FA02F340EA030021FA04F3C1
:1012F00045EA030130BDC4F10C04C4F1200220FA18
:1013000002F001FA04F340EA0300294630BD21FA55
:1013100004F0294630BD94F0000F83F4801306BF1B
:1013200081F480110134013D4EE77FEA645C18BF0F
:101330007FEA655C29D094EA050F08BF90EA020FA6
:1013400005D054EA000C04BF1946104630BD91EA9E
:10135000030F1EBF0021002030BD5FEA545C05D1A1
:101360004000494128BF41F0004130BD14F58004E0
:101370003CBF01F5801130BD01F0004545F0FE4154
:1013800041F470014FF0000030BD7FEA645C1ABF89
:10139000194610467FEA655C1CBF0B46024650EAC0
:1013A000013406BF52EA033591EA030F41F40021EC
:1013B00030BD00BF90F0000F04BF0021704730B572
:1013C0004FF4806404F132044FF000054FF0000147
:1013D00050E700BF90F0000F04BF0021704730B508
:1013E0004FF4806404F1320410F0004548BF4042DD
:1013F0004FF000013EE700BF42004FEAE2014FEA32
:1014000031014FEA02701FBF12F07F4393F07F4F0C
:1014100081F06051704732F07F4208BF704793F00F
:101420007F4F04BF41F40021704730B54FF4607422
:1014300001F0004521F000411CE700BF50EA010225
:1014400008BF704730B54FF000050AE050EA0102CE
:1014500008BF704730B511F0004502D5404261EB3E
:1014600041014FF4806404F132045FEA915C3FF47F
:10147000D8AE4FF003025FEADC0C18BF03325FEA1C
:10148000DC0C18BF033202EBDC02C2F1200300FACD
:1014900003FC20FA02F001FA03FE40EA0E0021FAF2
:1014A00002F11444BDE600BF00000000000000008F
:1014B00070B54FF0FF0C4CF4E06C1CEA11541DBFEA
:1014C0001CEA135594EA0C0F95EA0C0F00F0DEF8B5
:1014D0002C4481EA030621EA4C5123EA4C5350EA9A
:1014E000013518BF52EA033541F4801143F48013EB
:1014F00038D0A0FB02CE4FF00005E1FB02E506F07C
:101500000042E0FB03E54FF00006E1FB03569CF0D0
:10151000000F18BF4EF0010EA4F1FF04B6F5007FD6
:1015200064F5407404D25FEA4E0E6D4146EB060648
:1015300042EAC62141EA55514FEAC52040EA5E50D1
:101540004FEACE2EB4F1FD0C88BFBCF5E06F1ED87B
:10155000BEF1004F08BF5FEA500E50F1000041EBB2
:10156000045170BD06F0004646EA010140EA02005F
:1015700081EA0301B4EB5C04C2BFD4EB0C0541EA81
:10158000045170BD41F480114FF0000E013C00F396
:10159000AB8014F1360FDEBF002001F0004170BDBA
:1015A000C4F10004203C35DA0C341BDC04F11404D3
:1015B000C4F1200500FA05F320FA04F001FA05F25F
:1015C00040EA020001F0004221F0004110EBD3702C
:1015D00021FA04F642EB06015EEA430E08BF20EA58
:1015E000D37070BDC4F10C04C4F1200500FA04F3FB
:1015F00020FA05F001FA04F240EA020001F000418D
:1016000010EBD37041F100015EEA430E08BF20EAFF
:10161000D37070BDC4F1200500FA05F24EEA020E47
:1016200020FA04F301FA05F243EA020321FA04F076
:1016300001F0004121FA04F220EA020000EBD3702D
:101640005EEA430E08BF20EAD37070BD94F0000F2D
:101650000FD101F00046400041EB010111F4801F61
:1016600008BF013CF7D041EA060195F0000F18BF12
:10167000704703F00046520043EB030313F4801F4E
:1016800008BF013DF7D043EA0603704794EA0C0F08
:101690000CEA135518BF95EA0C0F0CD050EA41061E
:1016A00018BF52EA4306D1D181EA030101F000419B
:1016B0004FF0000070BD50EA410606BF10461946C3
:1016C00052EA430619D094EA0C0F02D150EA0136CF
:1016D00013D195EA0C0F05D152EA03361CBF104610
:1016E00019460AD181EA030101F0004141F0FE41AF
:1016F00041F470014FF0000070BD41F0FE4141F433
:10170000780170BD70B54FF0FF0C4CF4E06C1CEA32
:1017100011541DBF1CEA135594EA0C0F95EA0C0FE7
:1017200000F0A7F8A4EB050481EA030E52EA0335A2
:101730004FEA013100F088804FEA03334FF08055C3
:1017400045EA131343EA12634FEA022245EA1115F0
:1017500045EA10654FEA00260EF000419D4208BFA1
:10176000964244F1FD0404F5407402D25B084FEA4E
:101770003202B61A65EB03055B084FEA32024FF4FA
:1017800080104FF4002CB6EB020E75EB030E22BF57
:10179000B61A754640EA0C005B084FEA3202B6EB17
:1017A000020E75EB030E22BFB61A754640EA5C00C6
:1017B0005B084FEA3202B6EB020E75EB030E22BF56
:1017C000B61A754640EA9C005B084FEA3202B6EB57
:1017D000020E75EB030E22BFB61A754640EADC0016
:1017E00055EA060E18D04FEA051545EA16754FEA78
:1017F00006164FEAC30343EA52734FEAC2025FEA96
:101800001C1CC0D111F4801F0BD141EA00014FF024
:1018100000004FF0004CB6E711F4801F04BF0143F5
:101820000020B4F1FD0C88BFBCF5E06F3FF6AFAE11
:10183000B5EB030C04BFB6EB020C5FEA500C50F1A1
:10184000000041EB045170BD0EF0004E4EEA113124
:1018500014EB5C04C2BFD4EB0C0541EA045170BD2B
:1018600041F480114FF0000E013C90E645EA060E6F
:101870008DE60CEA135594EA0C0F08BF95EA0C0F9D
:101880003FF43BAF94EA0C0F0AD150EA01347FF4E5
:1018900034AF95EA0C0F7FF425AF104619462CE7BC
:1018A00095EA0C0F06D152EA03353FF4FDAE10461F
:1018B000194622E750EA410618BF52EA43067FF470
:1018C000C5AE50EA41047FF40DAF52EA43057FF400
:1018D000EBAE12E700000000000000000000000076
:1018E0004FF0FF3C06E000BF4FF0010C02E000BFEC
:1018F0004FF0010C4DF804CD4FEA410C7FEA6C5CCF
:101900004FEA430C18BF7FEA6C5C1BD001B050EA71
:10191000410C0CBF52EA430C91EA030F02BF90EA5C
:10192000020F0020704710F1000F91EA030F58BF1B
:10193000994208BF90422CBFD8176FEAE37040F07D
:10194000010070474FEA410C7FEA6C5C02D150EA1B
:10195000013C07D14FEA430C7FEA6C5CD6D152EAD6
:10196000033CD3D05DF8040B704700BF844610469B
:1019700062468C461946634600E000BF01B5FFF79A
:10198000B7FF002848BF10F1000F01BD4DF808ED6A
:10199000FFF7F4FF0CBF012000205DF808FB00BF3B
:1019A0004DF808EDFFF7EAFF34BF012000205DF895
:1019B00008FB00BF4DF808EDFFF7E0FF94BF0120E2
:1019C00000205DF808FB00BF4DF808EDFFF7CEFFE3
:1019D00094BF012000205DF808FB00BF4DF808ED22
:1019E000FFF7C4FF34BF012000205DF808FB00BFF3
:1019F0004FEA410C7FEA6C5C02D150EA013C0AD10B
:101A00004FEA430C7FEA6C5C02D152EA033C02D1FC
:101A10004FF0000070474FF00100704700000000D9
:101A20004FEA410212F5001215D211D56FF4787306
:101A3000B3EB625212D94FEAC12343F0004343EAA9
:101A4000505311F0004F23FA02F018BF4042704784
:101A50004FF00000704750EA013005D111F000400E
:101A600008BF6FF0004070474FF00000704700BFA4
:101A70004A0011D212F5001211D20DD56FF478730D
:101A8000B3EB62520ED44FEAC12343F0004343EA62
:101A9000505323FA02F070474FF00000704750EAAD
:101AA000013002D14FF0FF3070474FF00000704717
:101AB0004FEA4102B2F1E04324BFB3F5001CDCF170
:101AC000FE5C0DD901F0004C4FEAC0024CEA5070A8
:101AD000B2F1004F40EB830008BF20F001007047D7
:101AE00011F0804F21D113F13872BCBF01F00040DA
:101AF000704741F480114FEA5252C2F11802C2F10C
:101B0000200C10FA0CF320FA02F018BF40F001008C
:101B10004FEAC1234FEAD32303FA0CFC40EA0C003E
:101B200023FA02F34FEA4303CCE77FEA625307D17B
:101B300050EA01331EBF4FF0FE4040F440007047B2
:101B400001F0004040F0FE4040F40000704700BF4C
:101B500053B94AB9002908BF00281CBF4FF0FF3114
:101B60004FF0FF3000F074B9ADF1080C6DE904CE10
:101B700000F006F8DDF804E0DDE9022304B0704768
:101B80002DE9F047089E04468846002B4BD18A4237
:101B9000154667D9B2FA82F24AB1C2F1200701FABA
:101BA00002F320FA07F7954047EA030894404FEA0A
:101BB000154E230CB8FBFEF71FFA85FC0EFB1788A9
:101BC00043EA084307FB0CF1994209D9EB1807F1E6
:101BD000FF3080F01B81994240F21881023F2B4474
:101BE0005B1AA4B2B3FBFEF00EFB103344EA0344CD
:101BF00000FB0CFCA44509D92C1900F1FF3380F03F
:101C00000781A44540F2048102382C4440EA074091
:101C1000A4EB0C0400271EB1D4400023C6E9004306
:101C20003946BDE8F0878B4209D9002E00F0EB80E1
:101C30000027C6E9000138463946BDE8F087B3FA07
:101C400083F7002F47D18B4202D3824200F2FA8001
:101C5000841A61EB030301209846002EE0D0C6E908
:101C60000048DDE702B9FFDEB2FA82F2002A40F056
:101C70008F80491B4FEA154E1FFA85F80127B1FBEB
:101C8000FEFC230C0EFB1C1143EA014308FB0CF184
:101C9000994207D9EB180CF1FF3002D2994200F2B9
:101CA000CD808446591AA3B2B1FBFEF00EFB10148E
:101CB00043EA044408FB00F8A04507D92C1900F1B9
:101CC000FF3302D2A04500F2B6801846A4EB080408
:101CD00040EA0C409FE7C7F1200CBB4022FA0CFE03
:101CE0004EEA030E01FA07F420FA0CF521FA0CF380
:101CF0004FEA1E482543B3FBF8F92C0C08FB1933B7
:101D00001FFA8EFA44EA034309FB0AF49C4202FAE2
:101D100007F200FA07F10BD91EEB030309F1FF30BC
:101D200080F087809C4240F28480A9F102097344CC
:101D30001B1BADB2B3FBF8F008FB103345EA0344BC
:101D400000FB0AFAA24508D91EEB040400F1FF3398
:101D50006BD2A24569D90238744440EA0940A0FB1D
:101D60000289A4EB0A044C45C2464B4654D351D0D9
:101D7000002E69D0B1EB0A0564EB030404FA0CFCF5
:101D8000FD40FC404CEA0505C6E90054002747E742
:101D9000C2F1200320FA03F7954001FA02F021FA7C
:101DA00003F34FEA154E3843010CB3FBFEF71FFA5D
:101DB00085F80EFB173341EA034107FB08F38B421A
:101DC00004FA02F407D9691807F1FF3C2FD28B42BD
:101DD0002DD9023F2944CB1A81B2B3FBFEF00EFB92
:101DE000103341EA034100FB08F38B4207D969181D
:101DF00000F1FF3C17D28B4215D902382944C91A89
:101E000040EA07473BE73746304609E70746E7E63B
:101E10001846FBE64145ABD2B8EB020A69EB0E026D
:101E200001381346A4E76046E9E7184695E7674698
:101E3000D1E781467CE702382C4447E7ACF1020C3D
:101E40002B442FE7384608E73746E9E60000000054
:101E5000704700BF0000000000000000000000000C
:101E6000844641EA000313F003036DD1403A41D3A5
:101E700051F8043B40F8043B51F8043B40F8043B64
:101E800051F8043B40F8043B51F8043B40F8043B54
:101E900051F8043B40F8043B51F8043B40F8043B44
:101EA00051F8043B40F8043B51F8043B40F8043B34
:101EB00051F8043B40F8043B51F8043B40F8043B24
:101EC00051F8043B40F8043B51F8043B40F8043B14
:101ED00051F8043B40F8043B51F8043B40F8043B04
:101EE00051F8043B40F8043B51F8043B40F8043BF4
:101EF000403ABDD2303211D351F8043B40F8043B94
:101F000051F8043B40F8043B51F8043B40F8043BD3
:101F100051F8043B40F8043B103AEDD20C3205D3A3
:101F200051F8043B40F8043B043AF9D2043208D09B
:101F3000D2071CBF11F8013B00F8013B01D30B880D
:101F400003806046704700BF082A13D38B078DD0EB
:101F500010F003038AD0C3F10403D21ADB071CBFBD
:101F600011F8013B00F8013B80D331F8023B20F827
:101F7000023B7BE7043AD9D3013A11F8013B00F860
:101F8000013BF9D20B7803704B7843708B788370E8
:101F900060467047000000000000000000000000E4
:101FA00090F800F06DE9024520F007016FF0000C99
:101FB00010F0070491F820F040F049804FF0000441
:101FC0006FF00700D1E9002391F840F000F108001C
:101FD00082FA4CF2A4FA8CF283FA4CF3A2FA8CF354
:101FE0004BBBD1E9022382FA4CF200F10800A4FABB
:101FF0008CF283FA4CF3A2FA8CF3E3B9D1E904230F
:1020000082FA4CF200F10800A4FA8CF283FA4CF345
:10201000A2FA8CF37BB9D1E9062301F1200182FAFF
:102020004CF200F10800A4FA8CF283FA4CF3A2FA05
:102030008CF3002BC6D0002A04BF04301A4612BA13
:10204000B2FA82F2FDE8024500EBD2007047D1E916
:10205000002304F00305C4F100004FEAC50514F0A5
:10206000040F91F840F00CFA05F562EA05021CBF76
:1020700063EA050362464FF00004A9E70000000090
:1020800001F0FF01102A2BDB10F0070F08D010F829
:10209000013B013A8B422DD010F0070F42B3F6D12D
:1020A000F0B441EA012141EA014122F007047FF046
:1020B00000070023F0E80256083C85EA010586EA9D
:1020C000010685FA47F5A3FA87F586FA47F6A5FAD9
:1020D00087F68EB9EED1F0BC01F0FF0102F00702E5
:1020E00032B110F8013B013A83EA010313B1F8D190
:1020F0000020704701387047002D06BF3546033871
:10210000073815F0010F07D1013015F4807F02BFA9
:10211000013015F4C03F0130F0BC0138704700BFFA
:1021200000B5174B83B01B68019304F039FF02F030
:10213000E7FE01F06DFF134A1349144802F000FE58
:102140001349144806F02CFA02F01AFD12491348FC
:1021500005F0F6F911484FF6FF7105F061FA02F04B
:102160002FFA01F075F802F01BFC02F069FC00F098
:10217000EFFE0B4801F0CCFB00F002FBFCE700BFD8
:10218000000B0020040B00200C0B00209C150020ED
:10219000200B0020AC090120602401081C0901204B
:1021A00001290008000000000000000000000000FD
:1021B00000B5084B83B01A680192019A1B689A42D5
:1021C00005D1054803B05DF804EB02F001BFFFF74D
:1021D000EFFF00BF000B00204024010800000000BA
:1021E00070B52A4E82B03368019306292BD0072997
:1021F00008D00023C0E90033019A33689A4243D1E2
:1022000002B070BD224A9FED237A4FF0FF310A23BE
:1022100040F60104F2EC017AF4EEC77AF1EE10FA1E
:1022200008DDA3F13305B5F56D7F98BF194698BF5A
:10223000B0EE677A0133A342ECD1BDEEC77A4160BC
:1022400080ED007AD8E7144A9FED127A4FF0FF3103
:102250000A2340F60104F2EC017AF4EEC77AF1EEBB
:1022600010FA08DDA3F13305B5F56D7F98BF194667
:1022700098BFB0EE677A0133A342ECD1BDEEC77AC6
:10228000416080ED007AB7E7FFF792FF000B002076
:10229000DC3500200000C842DC65002000000000A2
:1022A0002DE9F04F87B0DFF83C82DDF844E0D8F844
:1022B00000400594AEF141042546022D8DE81C0036
:1022C000DDF840C09DF85040DDE9127670D9AEF1DE
:1022D0004E03022B00F2A580ACF141024FF0000B3F
:1022E000022A5B464FF0010503926AD9ACF14E0910
:1022F000B9F1020F00F2B580A7F1410A0135BAF138
:10230000020FEDB264D9A7F14E09B9F1020F00F244
:102310009580A6F141090135B9F1020FEDB25ED900
:10232000A6F14E02022A00F293800135012BEDB294
:10233000664B59D8012D40F29E8002251D70AEF1EA
:102340004E0E634BAE4594BF19601968614BACF1FA
:102350004E0CBCF1020F94BF186018685E4B4E3FE4
:10236000022F8ABF1B68009A0093A6F14E0698BF01
:102370001A60022E594B51D8019A1A60032C0ED8BC
:10238000574B009A661EE51C43F82610E11D0B34DE
:1023900043F8250043F82120019A43F82420059AA8
:1023A000D8F800309A4240F08E8007B0BDE8F08F38
:1023B0004FF0000B5D460123ACF14102022A03926B
:1023C00094D80133DBB2A7F1410ABAF1020F9AD8CF
:1023D0000133DBB2A6F14109B9F1020FA0D80133F4
:1023E000DBB2012B394BA5D901251D70029B022BB5
:1023F000374B94BF19601968039B022B354B94BF70
:1024000018601868344BBAF1020F8BBF1B68009A32
:1024100000931A60B9F1020F304BADD91B680193DC
:10242000ACE7AEF15B0BBBF1020F4FF000058CBFC8
:102430004FF0000B4FF0010B2B46BDE7A7F15B09F6
:10244000B9F1020F9CBF0BF1010B5FFA8BFBC1E7E7
:10245000A6F15B02022A9CBF0BF1010B5FFA8BFB1A
:10246000BFE7ACF15B09B9F1020F9CBF0BF1010BA7
:102470005FFA8BFBA7E7BBF1010F21D903251D7084
:10248000AEF15B0E124BBEF1020F94BF19601968DA
:10249000104BACF15B0CBCF1020F94BF18601868D4
:1024A0000D4B5B3F022F8ABF1B68009A0093A6F179
:1024B0005B0698BF1A60022E084B7FF65DAFADE752
:1024C00000251D705AE7FFF773FE00BFB4D500204A
:1024D00004D6002008D6002000D60020FCD500201D
:1024E000B8D50020000B0020000000000000000014
:1024F00000B5074B07491A68087883B00192019A22
:102500001B689A4202D103B05DF804FBFFF750FE4E
:10251000000B0020B4D500200000000000000000E7
:10252000F0B51B4C83B02368019305460846FEF7BF
:1025300051FF064628460F46FEF74CFF0022154B7A
:10254000FEF7B6FF10A3D3E90023FEF7B1FF024662
:102550000B4630463946FFF7D5F841EC100B0BF02F
:102560007FF953EC102B10EE100A1946FEF7E6FD2A
:10257000019A23689A4203D141EC100B03B0F0BDDD
:10258000FFF716FEAFF30080000000C0CA2109402B
:10259000000B0020000010400000000000000000C0
:1025A00030B5634C83B02568019588423BDB90428F
:1025B0003BDB984235DB07EE900ADFED5E6AB8EE52
:1025C000E77A27EE267AFDEEC77A17EE905AA942EF
:1025D0004BDCAA424BDCAB425EDC91425FDA9A42B2
:1025E0004FDB07EE902AB8EEE77A27EE267ABDEEAB
:1025F000C77A17EE102A934247DC07EE901AB8EE1E
:10260000E77A67EE267AFDEEE77A17EE905A88426F
:10261000494B3EDCA842D4BF40F2511200221A605E
:102620001DE0914201DB9A4206DB9A4204DD424BF7
:102630004FF492721A6012E007EE903A9FED3D7AE5
:10264000F8EEE77A67EE877AFDEEE77A17EE903AD2
:102650009A42394BD4BFF7224FF487721A60019A1D
:1026600023689A4247D103B030BDAA4203DB324B04
:102670002D221A60F3E7AB42D3DB2F4B87221A607F
:10268000EDE72D4B9D221A60E9E72B4B5A221A6089
:10269000E5E716221A60E2E7AA42EEDBE7E7994295
:1026A0002BDB07EE901AF8EEE77A67EEA67AFDEEDE
:1026B000E77A17EE905AAA4204DD1F4B40F23B1214
:1026C0001A60CCE7AB4205DDAA42F6DA1A4BE122EA
:1026D0001A60C4E79A42D4DB07EE902A9FED157A80
:1026E000F8EEE77A67EE877AFDEEE77A17EE90CAA2
:1026F00063458CDD99E7FFF75BFD9A42C1DB07EE8E
:10270000902AF8EEE77A67EEA67AFDEEE77A17EE02
:10271000902A9342B9DC07EE901A9FED067AF8EE04
:10272000E77A67EE877AFDEEE77A17EE905A6EE762
:10273000000B0020AE47613FA815002000000000FC
:1027400030B50D490D4A00010B1808581568D3E93A
:10275000014183B0DB68019520440844C018019909
:10276000136848BF033099424FEAA00001D103B07B
:1027700030BDFFF71DFD00BFB8D50020000B0020C5
:1027800000B5084B83B01A680192019A1B689A42FF
:1027900005D1054803B05DF804EB03F089BDFFF7F0
:1027A00007FD00BF000B00202C0B002000000000E4
:1027B00070B52B4D82B02A680192042904462BD0B3
:1027C000052908D0FFF70CFD019A2B689A42204694
:1027D00043D102B070BD234A9FED237A4FF0FF3101
:1027E0000A2340F60100F2EC017AF4EEC77AF1EE2A
:1027F00010FA08DDA3F13306B6F56D7F98BF1946D0
:1028000098BFB0EE677A01338342ECD1BDEEC77A50
:10281000616084ED007AD7E7144A9FED137A4FF098
:10282000FF310A2340F60100F2EC017AF4EEC77A98
:10283000F1EE10FA08DDA3F13306B6F56D7F98BF0F
:10284000194698BFB0EE677A01338342ECD1BDEEF2
:10285000C77A616084ED007AB6E7FFF7A9FC00BF94
:10286000000B0020DCC500200000C842DC950020E1
:102870002DE9F0411F4D82B006460C4629680191B2
:102880001746984601F04CFBA64210DBBE420CDA1C
:10289000474510DB019A2B689A4229D1012100207B
:1028A00002B0BDE8F04101F0E3BA46450EDABC42A1
:1028B000EEDB444511DA019A2B689A4218D10121C6
:1028C000022002B0BDE8F04101F0D2BA019A2B68B3
:1028D0009A420DD101210846F3E7019A2B689A42EA
:1028E00006D10121032002B0BDE8F04101F0C0BAD9
:1028F000FFF75EFC000B002000000000000000005D
:102900002DE9F04F2DED048BAE4EAF4F33683A8872
:1029100099B01793002900F0DC80DFF8B492DFF85B
:10292000B882DFF8BCE2DFF8B4C2DFEDA87A002598
:1029300004E00435ADB2A94240F2418130F91530CE
:1029400007EE103A9400B8EEC77A09EB040A00EBE0
:1029500045038AED007AB3F902A007EE10AAB8EE9B
:10296000C77A08EB040A8AED007AB3F904A007EEEF
:1029700010AAB8EEC77A0EEB040A8AED007AB3F912
:10298000063007EE103A531C9BB2B8EEC77A0232FB
:102990009B00644492B284ED007A09EB030B08EBD0
:1029A000030A0EEB0304B2F5006F6344CBED007A2B
:1029B000CAED007AC4ED007AC3ED007AB9D33A804B
:1029C0008349DFED849ADFF840824FF4806000F0A5
:1029D00037FA81494FF4806000F032FA7F494FF4B2
:1029E000806000F02DFA7E494FF4806000F028FAF4
:1029F0004FF480627B4976480BF082FC4FF4806292
:102A0000794975480BF07CFC4FF480627749734834
:102A10000BF076FC4FF48062754971480BF070FC46
:102A2000052107A8FFF7C4FE9DED077ADFED717A57
:102A3000B8EEC78A042109A828EE278AFFF7B8FE56
:102A4000DDED097A06210BA8F8EEE78AFFF7C8FB4F
:102A500007210DA80B9DFFF7C3FBDDED0D7AB8EE46
:102A6000E79A05210FA8FFF7A3FE68EEA98A0421C3
:102A700011A829EE299ADDF84090FFF799FE06216A
:102A800013A8DDF848A0BDEEC88AFFF7A9FBFDEE4C
:102A9000E88A072115A8DDF850B0BDEEC99AFFF706
:102AA0009FFB98F8004004942A46169D03958DE8F4
:102AB000000E19EE103A18EE901A18EE100AFFF7F1
:102AC000EFFB032C12D80134002388F800403B8030
:102AD00003E0B2F5006FBFF473AF179A33689A4200
:102AE0006BD119B0BDEC048BBDE8F08F202383F3CC
:102AF000118803F01DFB02F00BFB02F0D9FB3E48EE
:102B00008368002B56DD02F0FBFE02F021FB03F090
:102B100027FB3A4B1A689A4207D0996993688A68EA
:102B20009A4202D2364802F053FA002282F3118808
:102B3000344B88F80020D3E904219C699D68986A89
:102B40000A44D96914446418D3E900210A44D968B5
:102B5000154448BF03346D18D3E9082102EB01097D
:102B6000D96A8144D3E90C2048BF033519EB010928
:102B7000D3E90E1302EB000A8A4448BF09F10309A6
:102B80001AEB030A48BF0AF1030AA410AD104FEA7A
:102B9000A9094FEAAA0A204653464A462946FFF7A2
:102BA00067FE204653464A462946FFF7F9FC98F847
:102BB000004088E703F0B4FBA5E7FFF7F9FA3A8095
:102BC0008BE700BF000B0020FAD5002000000000BA
:102BD000B4A5002048E17A3FB4750020B445002038
:102BE000B4150020B4C50020B4950020B4650020C1
:102BF000B43500208FC2753F2C0B002078FB0020DD
:102C000070240108B8D50020F8D50020000000008D
:102C100000B5074B07491A68086883B00192019A0A
:102C20001B689A4202D103B05DF804FBFFF7C0FABB
:102C3000000B0020A815002000000000000000008C
:102C400000B507EE901A9FED3D7ADFED3D6A3D4AF3
:102C5000F8EEE77A83B027EE877A67EEA67A1368F4
:102C600001930028BDEEC77AFDEEE77A11D1002965
:102C700023D033DA4B4283421FD019DC04DA17EE3B
:102C8000103A5B42834218DC8142B4BF0520022027
:102C900014E01ADA00292DDB404288420DD036DCE0
:102CA00031DA17EE903A9842D4BF0120062005E0B1
:102CB00017EE903A5B428342E6DA062001991368E8
:102CC000994238D103B05DF804FB0029D2DB814280
:102CD0000DDA17EE103A834217DB09DC814212DD70
:102CE00017EE903A8342B4BF00200120E6E7F5D109
:102CF0000020E3E7814211DA17EE903A834218DBB5
:102D000015DC0420DAE70120D8E70520D6E717EE26
:102D1000103A9842ACBF01200620CFE707D0F0DD83
:102D200017EE103A8342ACBF04200320C6E703200D
:102D3000C4E70220C2E7FFF73BFA00BFCDCC8C3FCF
:102D40006666663F000B00200000000000000000E7
:102D500000B5244B83B01A68019288B101281BD0BA
:102D6000022827D004281FD005282AD003282FD0D6
:102D700006280AD11C4A4FF06431C2E9001104E070
:102D8000194A1A481A49C2E90001019A1B689A4275
:102D900025D103B05DF804FB134ADFF868C04FF09B
:102DA0007051C2E900C1F0E70F4A12481249C2E966
:102DB0000001EAE70C4A114841F25041C2E9000122
:102DC000E3E7094ADFF840C03C21C2E9001CDCE728
:102DD000054A0B4842F66401C2E90001D5E7FFF756
:102DE000E7F900BF000B0020AC150020643C140084
:102DF00000143C640000145064501400001E506421
:102E00000000286450645014145064500000000006
:102E100000B5074B07491A68085C83B00192019A14
:102E20001B689A4202D103B05DF804FBFFF7C0F9BA
:102E3000000B0020AC150020000000000000000086
:102E400000B50D4B83B01A680192B0F5806F019AFE
:102E50001B6804D09A420CD103B05DF804FB9A427F
:102E600007D106480123002203B05DF804EB0BF004
:102E7000C7B9FFF79DF900BF000B002080240108AF
:102E80002DE9F0471E4E1F4BB2691F491B681F4DAD
:102E9000DFF87CA0916182B04FF0200901934FF0E0
:102EA000000889F3118803F043F902F031F9B76A99
:102EB00002F04EF903F054F93368B34207D0B26917
:102EC0009B6892689A4202D2504602F081F888F3D9
:102ED00011884FF47A7002F053FE0024204601F06E
:102EE000CFFD0028B8BF404245F824000134092C2A
:102EF000F4D107F11401384602F082FED1E700BF99
:102F000078FB0020000B0020902401080CD6002044
:102F1000A0240108000000000000000000000000E4
:102F200000B5074B83B01A680192019A1B689A4258
:102F300003D1044803B05DF804FBFFF739F900BF83
:102F4000000B00200CD60020000000000000000054
:102F500010B50A4C0A4B22680A4884B04FF41E711F
:102F6000039200220092402202F0B2FD039A2368ED
:102F70009A4201D104B010BDFFF71AF9000B0020EE
:102F8000812E000830D60020000000000000000064
:102F90002DE9F04F2DED088BDFF8A0A29C4BDAF85D
:102FA00018209C491B689FED9CBADFED9C8ADFEDE1
:102FB0009CAA9FED9C9A9FED9CAADFED9C9A916143
:102FC0009FED917B8BB04FF0000B8DED007B099353
:102FD0005F4658E077B9830007EE903AF8EEE77A5B
:102FE00067EE8B7A67EEA87A67EEA87AFDEEE77A4D
:102FF00017EE907A002F04DD3946FFF791FA8DED38
:10300000000BDDE90001FEF753FD07EE900AF5EE37
:10301000407AF1EE10FA6ED077EEE87AB0EEE77A09
:10302000B4EEEA7AF1EE10FA65D4814B93ED007AB2
:1030300037EE877AB4EEC97AF1EE10FA5DDD83EDF2
:10304000009A67EE8A7AFDEEE77A17EE903A1DB2A3
:10305000FFF7DEFDB428C8BFA0F5B47004B2FFF7D7
:1030600047FA022800F09E8003285CD001284FD048
:10307000002001F08DFA002001F072FA06F10A0139
:10308000304602F0BDFD202383F3118803F050F891
:1030900002F03EF8DAF8286002F05AF803F060F81F
:1030A000DAF80030534508D0DAF818209B689268A7
:1030B0009A4202D25F4801F08BFF002585F3118808
:1030C0000220FFF73DFB04462846FFF739FB044486
:1030D0000320FFF735FB04440120FFF731FB2018E4
:1030E00048BF0330801044F6206398423FF772AF28
:1030F00080D0002785E70025AAE7B4EEE97AF1EE53
:1031000010FA4B4B48BFB0EE697A83ED007A98E72E
:10311000A4EB8400400004EB440401F039FA6000A1
:1031200001F01EFAAAE704EB4400A4EB840342007A
:103130005B00E8180693AB181946079205930490B4
:10314000FFF77EFDFFF704FEFFF7EAFEDFF8F090E1
:103150000390A0F1040BD8460025E8B258F8044FBC
:10316000FFF756FE89FB0023C017C0EB6310013543
:1031700004FB00F0092DC8F80000EED1039B03F119
:103180001C0800235BF8042F9342B8BF1346D845B0
:10319000F8D1632B13DC049801F0FAF9059801F0DB
:1031A000DFF96BE74FF6FA7314FB0355284601F07D
:1031B000EFF90C2004FB005001F0D2F95EE7643B0C
:1031C0001D4ADDED067A1B019B08A2FB03231B0AA7
:1031D000013308EE103AF8EEE77AB8EEC88A67EEE7
:1031E000887AFDEEE77A17EE900A01F0D1F9DDED6D
:1031F000077AF8EEE77A27EE888AFDEEC87A17EEAE
:10320000900A01F0ADF939E700000000000000006D
:10321000000B0020B0240108DB0F4940295C8F3DE2
:103220000AD7233C00005C4300409C4600005CC37E
:10323000A8D80020C0240108F5C39F4478FB0020D3
:103240001F85EB510000000000000000000000009E
:1032500010B50A4C0A4B22680A4884B04FF41E711C
:10326000039200220092402202F032FC039A23686B
:103270009A4201D104B010BDFEF79AFF000B002066
:10328000912F0008B0D800200000000000000000CE
:1032900030B54368174D1A68296883B00446019118
:1032A00012B304220270DA681B685208114698476C
:1032B0002378042B18D0202383F3118802F068FFB1
:1032C00001F066FF04F10800002102F061FD01F049
:1032D0007FFF02F075FF002383F31188019A2B68AA
:1032E0009A4204D103B030BD02232370E3E7FEF716
:1032F0005FFF00BF000B0020000000000000000086
:1033000070B5194D82B02B68019311F00C0F0C466B
:10331000064622D114F0200109D0019A2B689A4266
:103320001FD1304602B0BDE87040FFF7B1BFE306E1
:103330000DD57268136853B1019C2868844210D17E
:10334000D2683046520802B0BDE870401847019A72
:103350002B689A4205D102B070BD044801F038FED6
:10336000D8E7FEF725FF00BF000B0020F02401087E
:1033700070B5194D82B02B68019311F00C0F0C46FB
:10338000064622D114F0200109D0019A2B689A42F6
:103390001FD1304602B0BDE87040FFF779BFE306A9
:1033A0000DD57268136853B1019C2868844210D10E
:1033B000D2683046520802B0BDE870401847019A02
:1033C0002B689A4205D102B070BD044801F000FE9E
:1033D000D8E7FEF7EDFE00BF000B0020F024010847
:1033E00030B50F4D0F4C2A680F4B83B02046019229
:1033F0004FF6FF721A8000F05BF90C4B01992A68B6
:103400000B480C4D2562636203F1240591420A4B7F
:103410002363C4E90A5001D103B030BDFEF7C8FEF2
:10342000000B002040DB002028DB0020F82F0108E3
:103430001E010100003C00404600010000000000A9
:1034400070B52C4D03782A6882B0012B0446019296
:1034500024D06368E26A5989236B22F4F04223F492
:10346000F043090544BF42F4205243F42053C4E919
:103470000B23236A00221A606268236A52891A6049
:10348000236A03225A60226A136843F040031360E0
:10349000019A2B689A422BD102B070BD164EB042F1
:1034A0000AD0D4E9083212680C339360A26A236A06
:1034B00012680C339360CCE70346104A406A0A2135
:1034C00006F0B6FB80B9B06A0B4B0D4A0A2106F034
:1034D000AFFB28B90B4A136C43F400431364E0E7D5
:1034E000094801F075FDF5E7074801F071FDEAE7CD
:1034F000FEF75EFE000B002040DB00207133000869
:103500000133000800380240D02401080000000008
:1035100070B5456A174C2D68266882B00196EB603D
:10352000436A1B685960456AC36A2D6843F4806327
:103530002B60836A1B68DA60836A1B685960826A41
:10354000036B126843F480631360436A1A6813685C
:1035500043F001031360836A1A68136843F00103A0
:103560001360019A23689A4201D102B070BDFEF740
:103570001FFE00BF000B0020000000000000000044
:1035800030B5104D81682B680F4A83B001930B68EA
:1035900023F001030B608168946A03E0936A1B1BAC
:1035A000C72B09D8086810F00100F7D1019A2B68E1
:1035B0009A4204D103B030BD4FF0FF30F6E7FEF77A
:1035C000F7FD00BF000B002078FB0020000000008A
:1035D000F0B5284D83B02B68019302F071FD01F026
:1035E00017FE254B1E69F20715D55A69234C42F088
:1035F00001025A612778BB1F012B2AD90522636873
:1036000022701B680BB120469847042F27D0022F49
:1036100025D003232370B30710D5174A174C5369DD
:1036200043F0020353612378032B1DD063689B682A
:103630000622227013B101211048984701F010FEB4
:10364000019A2B689A4213D103B0BDE8F04003F011
:1036500067BC019A2B689A420AD103B0F0BD0223DD
:103660002370B307EAD5D8E72046FFF789FFDDE7E7
:10367000FEF79EFD000B0020000005502CDB002013
:1036800000B5074B83B01A680192019A1B689A42F1
:1036900004D103B05DF804EBFFF7A2BEFEF788FD8E
:1036A000000B0020000000000000000000000000EF
:1036B00000B50A4B83B01A68019201220270019989
:1036C0001A6800239142C0E9013305D10C3003B0E0
:1036D0005DF804EB02F064BEFEF76AFD000B00200B
:1036E00070B51E4D82B02B6801930E46044670B330
:1036F00069B3202383F3118802F01AFD01F008FD5D
:103700002378013B012B02D9154801F061FC2046CA
:103710006660FFF795FE0223237001F019FD02F0A9
:103720001FFD104B1A689A4204D0996993688A6801
:103730009A4208D3002383F31188019A2B689A4296
:1037400009D102B070BD084801F042FCF2E704481C
:1037500001F03EFCCDE7FEF72BFD00BF000B002083
:103760001025010878FB002000250108000000005A
:103770002DE9F041214D82B02C6801940E4690460F
:103780001F46044600B171BB1D4801F021FC2023F7
:1037900083F3118802F0CCFC01F0BAFC2378022BF1
:1037A00002D0174801F014FC03203B464246314644
:1037B00020702046FFF7ACFE01F0CAFC02F0D0FCFE
:1037C000104B1A689A4204D0996993688A689A42A1
:1037D0000ED3002383F31188019A2B689A420BD1F0
:1037E00002B0BDE8F081002BCED0002ACFD1CBE7CC
:1037F000054801F0EDFBECE7FEF7DAFC000B0020DA
:103800002025010878FB00200025010800000000A9
:103810002DE9F04F394A3A4B126883B001240192E6
:103820001C70002963D04FF00008364CC246C346D6
:10383000C1464746C446434647F6FF7E1DE0AB45BA
:10384000A8BFAB46024432F9026CB2F90450B4424C
:10385000B8BF3446B645A8BFB6464D4545DCA84579
:10386000A8BFA846B2F90220BA420EDC0433924542
:103870009BB2A8BF924699420CD95D1C6A0030F9F0
:1038800015506545DBDDAC46DCE704339BB299425D
:103890001746F2D8A4EB0E04ACEB0B0CA7EB0A070F
:1038A000A9EB0808A4B21FFA8CFCBFB21FFA88F873
:1038B000154A12491480019C0968144BA2F802C0F1
:1038C0009780B0F8F8C4B0F8FA64A2F80680B0F8AF
:1038D000FC54B0F8FE24A3F800C08C425E809D80AA
:1038E000DA8008D103B0BDE8F08FA946BAE7884670
:1038F0000F468C46DCE7FEF75BFC00BF000B0020A8
:1039000074DB00200080FFFF80DB002078DB0020DC
:1039100070B53F4B3F4C1A78236882B0012A01935F
:1039200005D0019A23689A4270D102B070BD3A491D
:103930003A4B4D6C45F480354D644E6A002546F493
:1039400080364E624D621D61DD60196A21F0010111
:103950001962996921F003019961996941F00101A6
:103960009961996921F0F0019961196A21F00A01C0
:103970001962996921F00C019961996821F070012F
:103980009960996841F050019960996821F48031FB
:1039900021F007019960996841F007019960196861
:1039A00021F440711960DA629D625A61196A21F04E
:1039B00010011962996921F440719961996921F0A6
:1039C000807121F4E0419961996941F4C0419961A4
:1039D000196A21F0A00119629A639A6942F400629F
:1039E0009A611A6A22F480621A621A6A42F011021B
:1039F0001A621A6842F001021A6020B1009068460B
:103A000000F076F98DE7064B0093F8E7FEF7D0FB60
:103A1000B4080120000B00200038024000400140A3
:103A20001138000800000000000000000000000045
:103A300070B5114C82B0236801930E4615462023C1
:103A400083F3118802F0A4FB01F0A2FB0B4B0C489E
:103A5000C3E9006502F064FC01F0BAFB02F0B0FBC0
:103A6000002383F31188019A23689A4201D102B09E
:103A700070BDFEF79DFB00BF000B002098F00020FA
:103A800088DB0020000000000000000000000000B3
:103A900070B5114C82B0236801930E461546202361
:103AA00083F3118802F074FB01F072FB0B4B0C489E
:103AB000C3E9006502F034FC01F08AFB02F080FBF0
:103AC000002383F31188019A23689A4201D102B03E
:103AD00070BDFEF76DFB00BF000B00207CEE0020E8
:103AE00088DB002000000000000000000000000053
:103AF0002DE9F04F624B63499A69634B916185B040
:103B00001B6803935E4B9B6993F821305B0700F1C0
:103B1000AD805E4802F0CCFB5C4802F0C9FB584B1C
:103B20009B6993F8212012F0040240F09F80584DC9
:103B300058482B6801680446406805EB830304EB92
:103B4000810103F50279430001F10808019343D094
:103B5000DFF850B1504BDFF85CA1012018F812508B
:103B600018F8006019F8121019F8004005F0550C0B
:103B7000770806F0550613F80CC09E5D01F0550E4F
:103B80004CEA061649084FEA540C01F0550104F0BE
:103B900055040CF0550C6D0813F80EE0595C1C5DD3
:103BA00013F80CC00BF8126005F0550507F0550727
:103BB00041EA0C114EEA041E0AF812E05D5D0AF8B3
:103BC0000010DF5D0199013245EA071591420BF8BB
:103BD000005000F10200C1D1304B31493148324D23
:103BE0000422FCF745FC314B314932480422FCF7F2
:103BF0003FFC314B314932480422FCF739FC314B50
:103C0000314932480422FCF733FCDFF8D4C028687D
:103C10009CF80070224A264900EBC71302F14006C7
:103C200014881C8054885C804C889C80043231F855
:103C3000044BDC80964203F10803F1D1092F11D126
:103C4000234B00221B688CF800204FF4207198470A
:103C50002B68204A204993420B6006BF1F4B2B6004
:103C60002A604FE701378CF800704BE7064B039A48
:103C70001B689A4202D105B0BDE8F08FFEF798FAB2
:103C800078FB002040250108000B002088DB002085
:103C900098F000207CEE0020380B002054EC00202F
:103CA00010E1002050E10020B80B0020BCEC002007
:103CB00024ED002064ED002088EC002012E10020BB
:103CC00051E10020F0EC002026ED002065ED002001
:103CD00064EE002050E20020BC0B002050E70020E2
:103CE00050EC002000000000000000000000000078
:103CF0002DE9F04F494A0168494B116085B0002118
:103D00000E461B684748039302F072FA4FF4AF6106
:103D1000454B009641224548454DDFF84891454CBA
:103D2000DFF844A1444F01F0D3FE444B444A1860ED
:103D3000136BC5F804A043F480534FF002184FF4FE
:103D40007A5B13632846C5E90298A5F800B0FCF732
:103D5000D7FA2046C4E901A9C4F80C80A4F800B041
:103D6000FCF7CEFA05F13400C5E90EA9C5F840808C
:103D7000A5F834B0FCF7C4FA324DC4F8408004F121
:103D80003400C4E90EA9A4F834B0FCF7B9FA3146FE
:103D900040F20C4238460BF04BF9DFF8D0902A4A3B
:103DA0006E604FF400634FF080082E812A606B81B3
:103DB000264CC5F80C80C7F80894FFF761FC29462B
:103DC0002348244DFFF78CFC07F5027307F1080226
:103DD0004FF480711E48FFF7CBFC314620464FF46C
:103DE00003720BF025F91C4B1C4AC4F808920834E6
:103DF0001A611946C3E900641948C3E9028503F052
:103E0000A7FC074B039A1B689A4205D1144805B0DA
:103E1000BDE8F04F03F0E4BCFEF7CAF964EE002001
:103E2000000B002088DB0020F13A000898DB00201E
:103E300054EC0020BCEC002098F0002094DB002023
:103E40000038024088F00020313A00087CEE002063
:103E500040DB0020913A000868EE00202C030800A7
:103E6000B4080120000020410000FA45EFBEADDE9D
:103E700070B5294D82B02B6801930E46032841D8B6
:103E8000DFE800F01A120A02012922D9234A5369F5
:103E900083F40063536116E0012926D91F4A536950
:103EA00083F4806353610EE0012918D91B4A5369DA
:103EB00083F04003536106E001291CD9174A536976
:103EC00083F020035361019A2B689A4218D102B003
:103ED00070BD124B4FF4006229B15A83F3E70F4BC8
:103EE00040220029F9D11A83EDE70C4B4FF4806290
:103EF0000029F8D0F1E7094B20220029F3D0ECE7A4
:103F0000FEF756F90024E0B231460134FFF7B0FF66
:103F1000042CF8D1D7E700BF000B0020000C0240B2
:103F2000F0B50D4F0D4C3B6883B0002501932E4634
:103F3000E8B200210135FFF79BFF042D2670667063
:103F4000A67004F10304F3D1019A3B689A4201D1AF
:103F500003B0F0BDFEF72CF9000B0020A4F4002004
:103F60002DE9F043254E83B034680194042A9DF86E
:103F70002890144605460F46984639D9B9F1000FE6
:103F800014BF00224FF08052640002EB0863013C32
:103F90001C4405F00F0527F01F07202383F3118829
:103FA00002F0C6F83D4301F0B3F8154B1035DD6063
:103FB0001C6101F0CDF802F0D3F8124B1A689A4256
:103FC00004D0996993688A689A420DD3002383F3D9
:103FD0001188BFF36F8FBFF34F8F019A33689A42F6
:103FE0000AD103B0BDE8F083074800F0F1FFEDE728
:103FF000064800F0EDFFC1E7FEF7DAF8000B0020FD
:1040000090ED00E078FB0020D0250108B0250108E4
:1040100030B5224D224C2B68224A85B00393636849
:1040200043F004036360536A43F4803353622023F4
:1040300083F3118802F07CF801F06AF817221A4B1A
:10404000E260236101F084F802F08AF8174B1A68E5
:104050009A4204D0996993688A689A4218D30020DA
:1040600080F31188BFF36F8FBFF34F8F03231D229F
:1040700000904FF00051FFF773FF094A536843F077
:1040800001035360039A2B689A4205D105B030BDF5
:10409000074800F09DFFE2E7FEF78AF8000B0020DA
:1040A00090ED00E000ED00E00900001078FB00203A
:1040B000D025010800000000000000000000000002
:1040C00070B51A4D1A4C1B4E0FCD0FC49EB02A6806
:1040D000336822801D93EFF30981682203A8FDF75E
:1040E000BFFE154B9D6AAA0714D4EB0708D5124BE7
:1040F00008995B6B114A00910D4880210AF0E8FF96
:104100001D9A33689A420FD109481EB0BDE870402D
:1041100000F05EBF099A5B6B0092A4F11000084AA0
:1041200080210AF0D5FFE0E7FEF742F89425010868
:10413000B0F40020000B002000ED00E07025010825
:1041400050250108000000000000000000000000F1
:1041500000B51F4B0278196883B00191E2B11D4A86
:104160004FF4005111834278EAB11A4A4FF480515A
:1041700011838278F2B1174A4FF480411183C278DB
:10418000FAB9144A4FF400415183019A1B689A42CC
:104190001CD103B05DF804FB0E4A4FF4005151836B
:1041A0004278002AE1D10B4A4FF480515183827842
:1041B000002AE0D1074A4FF480415183C278002A97
:1041C000DFD0044A4FF400411183DEE7FDF7F0FF32
:1041D000000B002000100240000000000000000062
:1041E00000B51F4B0278196883B00191E2B11D4AF6
:1041F0004FF4007111834278EAB11A4A4FF480718A
:1042000011838278F2B1174A4FF400611183C278AA
:10421000FAB9144A4FF480615183019A1B689A429B
:104220001CD103B05DF804FB0E4A4FF400715183BA
:104230004278002AE1D10B4A4FF480715183827891
:10424000002AE0D1074A4FF400615183C278002A66
:10425000DFD0044A4FF480611183DEE7FDF7A8FF49
:10426000000B0020001002400000000000000000D1
:1042700030B50C4A0C4B116883B04FF400550191D6
:104280004FF480544FF400414FF480405D835C83D1
:104290005883598301991368994201D103B030BD05
:1042A000FDF786FF000B0020001002400000000018
:1042B00030B50C4A0C4B116883B04FF40075019176
:1042C0004FF480744FF480614FF400605D835C8331
:1042D0005883598301991368994201D103B030BDC5
:1042E000FDF766FF000B00200010024000000000F8
:1042F00010B50B4C0B48236882B099220021019322
:1043000003F07EFB019A23689A4206D105480021FA
:1043100002B0BDE8104003F05BBCFDF749FF00BFF1
:10432000000B0020580901200000000000000000E0
:1043300010B50B4C0B48236882B0992200210193E1
:1043400003F05EFB019A23689A4206D105480021DA
:1043500002B0BDE8104003F03BBCFDF729FF00BFF1
:10436000000B002074090120000000000000000084
:1043700000B5084B83B01A680192019A1B689A42F3
:1043800006D10548002103B05DF804EB03F088BBBB
:10439000FDF70EFF000B002058090120000000006F
:1043A00000B5084B83B01A680192019A1B689A42C3
:1043B00006D10548002103B05DF804EB03F070BBA3
:1043C000FDF7F6FE000B002074090120000000003C
:1043D00070B51A4C1A4E2378326882B0022B0192C3
:1043E000A26811D165781748013505F0070500EB83
:1043F0008500904763686570013B6360019A33688C
:104400009A4219D102B070BD012B08D001993368CE
:10441000994211D10C4802B0BDE870401047657850
:104420000848013D05F0070500EB850090476368EB
:10443000657001336360E1E7FDF7BAFE48F50020DF
:10444000000B002070260108602601080000000013
:1044500070B51A4C1A4E2378326882B0012B019243
:10446000A26811D165781748013505F0070500EB02
:10447000850090476368657001336360019A336813
:104480009A4219D102B070BD022B08D0019933684D
:10449000994211D10C4802B0BDE8704010476578D0
:1044A0000848013D05F0070500EB8500904763686B
:1044B0006570013B6360E1E7FDF77AFE30F50020AF
:1044C000000B002070260108602601080000000093
:1044D00030B51F4D85B02B68039340F24C43994291
:1044E000044626DCA3F69803994211DB4B00002B0F
:1044F00029D10370036998474FF47A71039A2B68A6
:104500009A421ED1606905B0BDE8304003F030BA70
:10451000104B02225B42227040F2892293420E49E4
:1045200091FBF3F189B207DC0191E36898470199A7
:10453000E4E7012303702D21019123699847019934
:10454000DCE7FDF735FEE4DD01220270E4E700BFA1
:10455000000B002068F7FFFFA086010000000000AC
:1045600000B5084B83B01A680192019A1B689A4201
:1045700006D10146044803B05DF804EBFFF7A8BF7D
:10458000FDF716FE000B002030F5002000000000B3
:1045900000B5084B83B01A680192019A1B689A42D1
:1045A00006D10146044803B05DF804EBFFF790BF65
:1045B000FDF7FEFD000B002048F500200000000084
:1045C00070B51D4E1D4A1E4B30681E491E4C916031
:1045D00082B00021D46001901C4C1D481D4D9D608F
:1045E000117051705160106154611B481B4A1C4D81
:1045F000D8601C48197059705960C3E90425FFF749
:10460000A7FD1848FFF7ECFD1749204603F060F9B5
:10461000204603F095FA2846144903F059F9019A07
:1046200033689A4205D1284602B0BDE8704003F0D5
:1046300087BAFDF7BDFD00BF000B002048F5002044
:1046400030F5002051410008F142000858090120CE
:1046500071430008E141000831430008A14300080C
:10466000740901206026010820260108E0250108C0
:104670000A490B4B09680B4A82B020200191402166
:1046800058834FF4806559834FF400644FF48040A1
:1046900004215D835C8358835183FEE7000B002077
:1046A000000C024000040240000000000000000076
:1046B00010B51E491E4A0B78106882B0013B01906C
:1046C000072B0AD8DFE803F012151C1F26290F0458
:1046D00018480824012304830B7001991368994238
:1046E00021D102B010BD08230B70F6E702230B7036
:1046F000F3E711484FF48054032304830B70ECE775
:1047000004230B70E9E70C484FF48044052304832D
:104710000B70E2E706230B70DFE70648042407234B
:1047200004830B70D9E7FDF743FD00BFE0F80020DC
:10473000000B0020001002400004024000000000B6
:1047400030B50C4B0C4918680C4A83B04FF48045C7
:1047500001904FF480504883042408204D835483F3
:104760005083019A1B689A4201D103B030BDFDF716
:104770001FFD00BF000B002000040240001002409B
:104780002DE9F04F4E4B4F4A9B694F499961A5B0B7
:1047900007AE05AD80231768009331462A460024F2
:1047A0000CA84A4B2397CDE90766CDE90555CDE91D
:1047B00009440B9400F0DCFA0CA9454A4548434CE7
:1047C000454DDFF83481DFF834B1DFF834A100F073
:1047D000F7FA04F11C0604F16007A146504601F007
:1047E00067FD2A682B69226063602A6A2B6BA260CE
:1047F000E3606A686B69226163616A6A6B6BA261DC
:10480000E361AA68AB6922626362AA6AAB6BA262C7
:10481000E362EA68EB6922636363EA6AEB6B2F4940
:10482000A263E36351F8043F0A6AB142A3EB0203B7
:104830000B64F7D1802249460CA800F0F1FA98F8F1
:104840000030002BCAD09BF8003033B3012BC5D108
:10485000DFF8B0C02248614650F8042B51F8043FFD
:10486000B84213440B60F7D11E4A13780133DBB210
:10487000642B1370B2D11C495CF8043F1B4A82FBC5
:104880000302DB17C3EB621341F8043B184B9C4552
:10489000F2D1002388F80030A0E719462022124800
:1048A00003930AF0C5FB039B1248194620220AF025
:1048B000BFFB0C49039B0B7001228BF800208DE796
:1048C00078FB0020000B002090260108E4F5002072
:1048D000D02601089C15002080F50020E0F500207E
:1048E00024F60020C1F5002044F600201F85EB517E
:1048F000E0F50020C4F50020C0F50020C2F500203E
:10490000C00B0020C0F500200000000000000000E7
:1049100070B502691E4D52882B6882B006460C465F
:104920001C480193920000210AF082FB33695B88E6
:104930005BB1184AA11E002331F8020F42F8040BA4
:104940003069408801339842F6D8202383F31188D8
:1049500001F01EFC00F01CFC00F0AAFC0E4883686D
:10496000002B0FDD00F034FC01F02AFC002383F360
:104970001188019A2B68094901209A42087004D1D4
:1049800002B070BD01F0CCFCECE7FDF711FC00BFFC
:10499000000B002080F50020C00B0020E0F8002074
:1049A00070B51F4D1F4C2E78236884B0012E0393E1
:1049B00005D0039A23689A422FD104B070BD00211C
:1049C000284602F005FC284602F0C2FC3346284681
:1049D000154A164902F07CFC1549164802F078FF8A
:1049E0004FF496720021134803F00AF80021114891
:1049F00003F0EEF80F4803F0A3F831464FF482724B
:104A00000C4802F0FDFF0023009340220A4B0B48A4
:104A10004FF41E7101F05CF8CBE7FDF7C9FB00BF56
:104A2000D4020120000B002060F50020A026010820
:104A3000E02601083C0901208147000868F60020B3
:104A400030B50C4D0C4A2B680C4C83B000210193FF
:104A5000012311702370142001F092F82378002BA9
:104A6000F9D1019A2B689A4201D103B030BDFDF70C
:104A70009FFB00BF000B0020C2F50020C0F5002006
:104A800000B50A4B83B01A68019207289BBF084AF9
:104A90001030002052F82000019A1B689A4202D17F
:104AA00003B05DF804FBFDF783FB00BF000B0020A3
:104AB000E4F50020000000000000000000000000FD
:104AC00000B50F4B83B01868019002290CD0032960
:104AD0000CD001290B4818BF0020019A1B689A428C
:104AE0000BD103B05DF804FB0748F6E7032A96BF35
:104AF0000648002000EBC200EFE7FDF759FB00BFBE
:104B0000000B002000280108A0270108B028010898
:104B100070B5154C82B02368019302291CD10D4653
:104B20000646202383F3118801F032FB00F030FBAE
:104B300030460E4A012104F0D3F929460C4A30468A
:104B400004F0CEF90B4803F0CBFF00F041FB01F07D
:104B500037FB002383F31188019A23689A4201D11D
:104B600002B070BDFDF724FB000B002020270108D8
:104B700050270108E4F800200000000000000000B9
:104B800030B5134D134C2B68134883B0019303F0D9
:104B90001FFF1249104803F04BFF226D936B23F463
:104BA000002393634FF47A7000F0EAFF20460C492B
:104BB00004F046F9226D936B43F400239363019A4A
:104BC0002B689A4201D103B030BDFDF7F1FA00BF66
:104BD000000B002038060120E4F80020802701089F
:104BE0009027010800000000000000000000000005
:104BF00000B5084B83B01A680192019A1B689A426B
:104C000005D1054803B05DF804EB01F0B1BCFDF738
:104C1000CFFA00BF000B0020CC0B002000000000EA
:104C200000B5084B83B01A680192019A1B689A423A
:104C300005D1054803B05DF804EB01F0D1BCFDF7E8
:104C4000B7FA00BF000B0020CC0B002000000000D2
:104C500070B50D4C82B0236801930D1E06460DDD24
:104C6000284602F0D5F818B90C2333604FF0FF3016
:104C7000019A23689A4205D102B070BD034800F042
:104C8000A7F9EDE7FDF794FA000B0020D028010802
:104C900000B5064B83B01A680192019A1B689A42CC
:104CA00002D103B05DF804FBFDF782FA000B00208F
:104CB00000B5074B83B01A680192019A1B689A42AB
:104CC00004D103B05DF804EB01F052BCFDF770FABB
:104CD000000B0020000000000000000000000000A9
:104CE00000B5074B83B01A680192019A1B689A427B
:104CF00004D103B05DF804EB01F072BCFDF758FA83
:104D0000000B002000000000000000000000000078
:104D100000B5074B83B01A680192019A1B689A424A
:104D200004D103B05DF804EB01F00ABDFDF740FAD1
:104D3000000B002000000000000000000000000048
:104D400010B5084B82B01C68019400240460019CDB
:104D50001B689C42C0E9011201D102B010BDFDF7F1
:104D600027FA00BF000B0020000000000000000038
:104D70002DE9F0430E4D83B02C680194044699460A
:104D80000F46164610304C220021DDF828800AF02C
:104D90004FF9C4F80090019A2B68E6609A42C4E982
:104DA000018702D103B0BDE8F083FDF701FA00BF2F
:104DB000000B0020000000000000000000000000C8
:104DC000F0B5144E83B001F110031746326801921A
:104DD0000446412218460D4600210AF029F93946B9
:104DE00040220AF0BDF96068FFF762FF236803B153
:104DF000AB652560A068FFF78BFF019A33689A4284
:104E000005D1606803B0BDE8F040FFF769BFFDF76A
:104E1000CFF900BF000B00200000000000000000E0
:104E2000F0B51C4E436883B005469342306801904C
:104E300006D20020019A33689A4229D103B0F0BD0E
:104E400014460F46A868FFF733FF22463946286804
:104E5000FDF706F8012385F85130E868FFF758FFA1
:104E60006C6D84B123681868FFF722FF23689D608A
:104E700023685868FFF74CFF23681868FFF730FF76
:104E80006468002CEED1A868FFF72AFF0120D1E763
:104E9000FDF78EF9000B002000000000000000006C
:104EA00000B5064B83B01A680192019A1B689A42BA
:104EB00002D103B05DF804FBFDF77AF9000B002086
:104EC000024B82B01B680193FEE700BF000B00207D
:104ED00000B5044B04481B6883B0019300F078F8D8
:104EE000FEE700BF000B0020E028010800000000E2
:104EF000024B82B01B680193FEE700BF000B00204D
:104F0000F0B5294E294B3268294885B00024039218
:104F10009C60D968274A4FF6FF0529400A43DA60AA
:104F2000C2682549254D42F08072C2600A6842F08D
:104F300001020A6010202022D87783F8222000F096
:104F4000DFFA00F045FA01F043F801F039FF01F013
:104F5000A7FF01F095F800F0FBF9402105F5886006
:104F600000F01EFD0127164BC36180F82070A86178
:104F700000F0A6F884F3118862B6AB69114A9A6111
:104F80004FF4C4713A46104B009405F59D6000F053
:104F90009FFD039A33680D4981619A4201D105B0A2
:104FA000F0BDFDF705F900BF000B002000ED00E0AB
:104FB000F0ED00E00003FA05001000E078FB0020AF
:104FC00000040020602A0108F14E000800290108B1
:104FD00000B5054B83B01B680193044672B6FFF71A
:104FE00047FB024BDC62FEE7000B002078FB002051
:104FF0002DE9F047DFF890A0224DDAF8003082B0BA
:10500000019300F055F9AB6993F8232012B1013AEE
:1050100083F823205A6ADFF8748001325A6200F064
:1050200047F9AB6AEA6901334245AB6220D0936825
:10503000013B9360EC69A668D6B94FF0200923685C
:10504000E768E660C3F804802368EB6100F0C0F80D
:1050500001F0B6F886F311882069B84789F3118802
:1050600001F096F800F094F8EC69A368002BE6D004
:10507000019ADAF800309A4202D102B0BDE8F08716
:10508000FDF796F878FB0020000B002094FB002031
:1050900010B5094C094A236882B0019351685368DE
:1050A0005B1A9842FBD8019A23689A4201D102B058
:1050B00010BDFDF77DF800BF000B0020001000E0E0
:1050C00000B50E4A0E4B116B186883B0019009B9F8
:1050D000526B4AB1019A1B689A420CD1094803B03D
:1050E0005DF804EBFFF774BF019A1B689A4202D186
:1050F00003B05DF804FBFDF75BF800BF78FB002010
:10510000000B002010290108000000000000000032
:1051100030B50B4C0B4D236B2A6883B001920BB951
:10512000636B13B10848FFF753FF019A2B68012105
:105130009A42616301D103B030BDFDF739F800BF79
:1051400078FB0020000B002040290108000000002F
:1051500030B50C4C0C4D236B2A6883B0019253B9C7
:10516000636B002B07DD019A2B6800219A42616373
:1051700005D103B030BD0548FFF72AFFF3E7FDF77F
:1051800017F800BF78FB0020000B00206029010801
:1051900030B50B4C0B4D236B2A6883B0002B01926A
:1051A00001DD636B13B10848FFF712FF019A2B680A
:1051B00001219A42616301D103B030BDFCF7F8FFD1
:1051C00078FB0020000B002050290108000000009F
:1051D00030B50C4C0C4D236B2A6883B0002B019228
:1051E0000ADD636B002B07DD019A2B6800219A42D0
:1051F000616305D103B030BD0448FFF7E9FEF3E772
:10520000FCF7D6FF78FB0020000B00207029010876
:1052100030B50F4D83B02B680193202383F31188A1
:105220000C4C236B002B01DB626B1AB10A48FFF7B1
:10523000CFFE236B01332363002383F31188019A8C
:105240002B689A4201D103B030BDFCF7B1FF00BF1B
:10525000000B002078FB002020290108000000003E
:1052600030B50F4D83B02B680193202383F3118851
:105270000C4C236B002B01DD626B1AB10A48FFF75F
:10528000A7FE236B013B2363002383F31188019A5C
:105290002B689A4201D103B030BDFCF789FF00BFF3
:1052A000000B002078FB00203029010800000000DE
:1052B00000B50F4A0F4B116B186883B0002901909D
:1052C00009DB526B002A06DD019A1B689A420CD159
:1052D00003B05DF804FB019A1B689A4205D10648A9
:1052E00003B05DF804EBFFF773BEFCF761FF00BF8E
:1052F00078FB0020000B002080290108000000003E
:1053000000B50E4A0E4B116B186883B0019049B975
:10531000526B002A06DD019A1B689A420CD103B039
:105320005DF804FB019A1B689A4205D1054803B059
:105330005DF804EBFFF74CBEFCF73AFF78FB00206A
:10534000000B002090290108000000000000000070
:1053500010B5084A084B116882B0402401910199A8
:10536000126818199142C3E90E4001D102B010BD74
:10537000FCF71EFF000B002078FB0020000000005F
:1053800010B51149114B0A6882B00192DA6B9C6A20
:105390001460DA6B9C695460DA6B846A9460DA6B2F
:1053A00090F820001073DA6B03F5886010328242A7
:1053B00028BF03F14002DA63019A0B689A4201D1D7
:1053C00002B010BDFCF7F4FE000B002078FB0020BB
:1053D00010B50B4A0B4B116882B04FF0FF340191AE
:1053E00000219962019811685C6203F11C028842F5
:1053F000C3E9072201D102B010BDFCF7D9FE00BFFE
:10540000000B002078FB00200000000000000000DE
:105410002DE9F041184E82B00546306801900C46E7
:1054200017469846FFF744FF05B3FFB1F4B1C5E94D
:1054300003781248C3699A68944204D91B68A41A75
:105440009A68A242FAD32B605A686A6015605D6060
:10545000AC609968019D3268091B95424FF0FF349A
:105460009960446206D102B0BDE8F0810448FFF7BC
:10547000AFFDDCE7FCF79CFE000B002078FB002072
:10548000A02901080000000000000000000000004A
:1054900030B5164D83B004462B680193FFF708FF23
:1054A000ECB1E368BBB12268A0689368019903443A
:1054B0009360D4E900231A6020682B680C4A656861
:1054C000456099424FF000054FF0FF30E5605062B3
:1054D00009D103B030BD0748FFF77AFDE3E705487F
:1054E000FFF776FDDDE7FCF763FE00BF000B002051
:1054F00078FB0020B0290108000000000000000037
:1055000000B50A4A0A4B11681B6083B00020019164
:10551000019912685B609142C3E90433986002D13B
:1055200003B05DF804FBFCF743FE00BF000B002056
:1055300078FB0020000000000000000000000000D8
:1055400030B5164D83B004462B680193FFF7B0FECB
:10555000ECB194F82030B3B10F2B14D00022A16825
:105560000F4B84F820201B689A688A42FBD2236084
:105570005A686260146001992A685C609142204612
:1055800009D103B030BD0748FFF722FDE6E7054823
:10559000FFF71EFDDDE7FCF70BFE00BF000B002050
:1055A00078FB0020C0290108000000000000000076
:1055B00070B5204D82B02B6801930446202383F3FD
:1055C000118800F0E5FDFFF7E3FD94F82030072B8C
:1055D00011D8DFE803F0161010230A04100AA66A97
:1055E000FFF766FEB3680133B360D4E900231A60A5
:1055F000D4E900325A604FF0FF33A3622046FFF730
:105600009FFFFFF7E5FD00F0DBFD002383F311882A
:10561000019A2B689A420BD102B070BDA36A002296
:105620001A604FF0FF33A3622046FFF789FFE8E7D7
:10563000FCF7BEFD000B0020000000000000000091
:10564000F0B5194E194C336883B007460193FFF744
:1056500057FEA569236885F82070142285F8232059
:105660001A68226001215460284683F82010A36143
:10567000FFF786FE2946A06900F03AFDEFF30983A3
:10568000EA69643B9A4202D90948FFF7A1FC019AF2
:1056900033689A4206D1A069294603B0BDE8F040BC
:1056A000FAF706BEFCF784FD000B002078FB002013
:1056B000D0290108000000000000000000000000E8
:1056C000F0B5154C87B0236805930E460746FFF7E3
:1056D00017FE731C18D0114D114AAB69314668464C
:1056E000FFF796FE3846FFF7ABFFFFF7E1FD039BA0
:1056F00013B16846FFF7CCFE059A2368A9699A4260
:10570000886A06D107B0F0BD3846FFF799FF034D10
:10571000F2E7FCF74DFD00BF000B002078FB0020F6
:10572000B15500080000000000000000000000006B
:10573000F0B51E4D1E4E2B6883B0044601930F46F4
:10574000FFF7DEFDB069A7628368A2689A421DD99F
:10575000FFF7F6FE0123074684F82030B461FFF717
:105760000FFE3946204600F0C3FCEFF30983FA69C7
:10577000643B9A4214D8019A2B689A4214D1394654
:10578000204603B0BDE8F040FAF792BD019A2B68BD
:105790009A4209D1204603B0BDE8F040FFF7D0BEE1
:1057A0000448FFF715FCE6E7FCF702FD000B0020BC
:1057B00078FB0020D0290108000000000000000054
:1057C00010B50E490E4B8A69086892F823101C68C0
:1057D0008068926882B0019449B9904234BF002039
:1057E0000120019A1B689A4206D102B010BD904276
:1057F00094BF00200120F4E7FCF7DAFC78FB0020DE
:10580000000B00200000000000000000000000006D
:1058100070B5184C184E2368A5691A682260546048
:10582000012283F8202082B01422316885F82320D9
:105830002846A3610191FFF783FE2846FFF7A0FDEC
:105840002946A06900F054FCEFF30983EA69643B40
:105850009A4202D90948FFF7BBFB019A33689A4282
:1058600006D1A069294602B0BDE87040FAF720BD14
:10587000FCF79EFC78FB0020000B0020D0290108DB
:1058800070B51C4D1C4E2A68AC6913682B60012151
:1058900082B05D60002082F82010AA613268A168A1
:1058A00084F82000019200E01B689A688A42FBD8C5
:1058B00023605A686260204614605C60FFF760FDF8
:1058C0002146A86900F014FCEFF30983E269643B08
:1058D0009A4202D90948FFF77BFB019A33689A4242
:1058E00006D1A869214602B0BDE87040FAF7E0BCD5
:1058F000FCF75EFC78FB0020000B0020D02901089B
:1059000010B50F4C82B023680193FFF7F9FCFFF745
:10591000CFFC0C4B1A689B6992689B689A42019A6B
:10592000236803D89A4208D102B010BD9A4204D12C
:1059300002B0BDE81040FFF7A3BFFCF739FC00BF81
:10594000000B002078FB0020000000000000000099
:1059500000B50E4A0E4B9269196892F8232083B065
:10596000019142B1019A1B689A420DD103B05DF8D2
:1059700004EBFFF785BF019A1B689A4204D103B07C
:105980005DF804EBFFF744BFFCF712FC78FB002046
:10599000000B0020000000000000000000000000DC
:1059A000F0B51A4A1A4D02610446816083B014238F
:1059B00050692E68616484F8233002270023012196
:1059C000278484F82210C4E90F3304F16801A3612D
:1059D000019604F12C07636204F1500604F13003D0
:1059E00060610461C4E90C33E1613046E7625461EF
:1059F00000F086FA304600F0A3FA019A2B689A422A
:105A000002D1204603B0F0BDFCF7D2FB78FB0020AA
:105A1000000B00200000000000000000000000005B
:105A200010B5094B82B01C680194884203D200F87B
:105A3000012B8142FBD1019A1B689A4201D102B02D
:105A400010BDFCF7B5FB00BF000B002000000000FC
:105A50002DE9F043184E83B0346801940546DDF813
:105A600028900C4617469846FFF722FC15B1B4F56E
:105A7000BC7F19D21148FFF7ABFAA4F164012944A5
:105A8000E960C1F84080EB68019AC3F8449033683C
:105A9000E9680B4808669A420CD13946284603B09B
:105AA000BDE8F043FFF77CBF7F2FE3D8B8F1000FCC
:105AB000E3D1DFE7FCF77CFB000B0020202A010884
:105AC000C902000800000000000000000000000003
:105AD0002DE9F04FDFF8A48087B0D8F80040DDF85A
